{
  "_format": "hh-sol-artifact-1",
  "contractName": "MailToBlock",
  "sourceName": "contracts/MailToBlock.sol",
  "abi": [
    {
      "anonymous": false,
      "inputs": [
        {
          "indexed": false,
          "internalType": "address",
          "name": "sender",
          "type": "address"
        },
        {
          "indexed": false,
          "internalType": "address",
          "name": "reciever",
          "type": "address"
        },
        {
          "indexed": false,
          "internalType": "string",
          "name": "subject",
          "type": "string"
        },
        {
          "indexed": false,
          "internalType": "string",
          "name": "body",
          "type": "string"
        },
        {
          "indexed": false,
          "internalType": "uint256",
          "name": "timestamp",
          "type": "uint256"
        },
        {
          "indexed": false,
          "internalType": "string",
          "name": "ipfsHash",
          "type": "string"
        },
        {
          "indexed": false,
          "internalType": "string",
          "name": "Filename",
          "type": "string"
        }
      ],
      "name": "Send",
      "type": "event"
    },
    {
      "inputs": [],
      "name": "getInboxEmails",
      "outputs": [
        {
          "components": [
            {
              "internalType": "address",
              "name": "sender",
              "type": "address"
            },
            {
              "internalType": "address",
              "name": "receiver",
              "type": "address"
            },
            {
              "internalType": "string",
              "name": "subject",
              "type": "string"
            },
            {
              "internalType": "string",
              "name": "body",
              "type": "string"
            },
            {
              "internalType": "uint256",
              "name": "timestamp",
              "type": "uint256"
            },
            {
              "internalType": "string",
              "name": "ipfsHash",
              "type": "string"
            },
            {
              "internalType": "string",
              "name": "Filename",
              "type": "string"
            }
          ],
          "internalType": "struct MailToBlock.Email[]",
          "name": "",
          "type": "tuple[]"
        }
      ],
      "stateMutability": "view",
      "type": "function"
    },
    {
      "inputs": [],
      "name": "getSentEmails",
      "outputs": [
        {
          "components": [
            {
              "internalType": "address",
              "name": "sender",
              "type": "address"
            },
            {
              "internalType": "address",
              "name": "receiver",
              "type": "address"
            },
            {
              "internalType": "string",
              "name": "subject",
              "type": "string"
            },
            {
              "internalType": "string",
              "name": "body",
              "type": "string"
            },
            {
              "internalType": "uint256",
              "name": "timestamp",
              "type": "uint256"
            },
            {
              "internalType": "string",
              "name": "ipfsHash",
              "type": "string"
            },
            {
              "internalType": "string",
              "name": "Filename",
              "type": "string"
            }
          ],
          "internalType": "struct MailToBlock.Email[]",
          "name": "",
          "type": "tuple[]"
        }
      ],
      "stateMutability": "view",
      "type": "function"
    },
    {
      "inputs": [
        {
          "internalType": "address",
          "name": "",
          "type": "address"
        },
        {
          "internalType": "uint256",
          "name": "",
          "type": "uint256"
        }
      ],
      "name": "inbox",
      "outputs": [
        {
          "internalType": "address",
          "name": "sender",
          "type": "address"
        },
        {
          "internalType": "address",
          "name": "receiver",
          "type": "address"
        },
        {
          "internalType": "string",
          "name": "subject",
          "type": "string"
        },
        {
          "internalType": "string",
          "name": "body",
          "type": "string"
        },
        {
          "internalType": "uint256",
          "name": "timestamp",
          "type": "uint256"
        },
        {
          "internalType": "string",
          "name": "ipfsHash",
          "type": "string"
        },
        {
          "internalType": "string",
          "name": "Filename",
          "type": "string"
        }
      ],
      "stateMutability": "view",
      "type": "function"
    },
    {
      "inputs": [
        {
          "internalType": "address",
          "name": "_reciever",
          "type": "address"
        },
        {
          "internalType": "string",
          "name": "subject",
          "type": "string"
        },
        {
          "internalType": "string",
          "name": "body",
          "type": "string"
        },
        {
          "internalType": "uint256",
          "name": "timestamp",
          "type": "uint256"
        },
        {
          "internalType": "string",
          "name": "ipfsHash",
          "type": "string"
        },
        {
          "internalType": "string",
          "name": "Filename",
          "type": "string"
        }
      ],
      "name": "sendEmail",
      "outputs": [],
      "stateMutability": "nonpayable",
      "type": "function"
    },
    {
      "inputs": [
        {
          "internalType": "address",
          "name": "",
          "type": "address"
        },
        {
          "internalType": "uint256",
          "name": "",
          "type": "uint256"
        }
      ],
      "name": "sent",
      "outputs": [
        {
          "internalType": "address",
          "name": "sender",
          "type": "address"
        },
        {
          "internalType": "address",
          "name": "receiver",
          "type": "address"
        },
        {
          "internalType": "string",
          "name": "subject",
          "type": "string"
        },
        {
          "internalType": "string",
          "name": "body",
          "type": "string"
        },
        {
          "internalType": "uint256",
          "name": "timestamp",
          "type": "uint256"
        },
        {
          "internalType": "string",
          "name": "ipfsHash",
          "type": "string"
        },
        {
          "internalType": "string",
          "name": "Filename",
          "type": "string"
        }
      ],
      "stateMutability": "view",
      "type": "function"
    }
  ],
  "bytecode": "0x608060405234801561001057600080fd5b50611aed806100206000396000f3fe608060405234801561001057600080fd5b50600436106100575760003560e01c806329ea43011461005c5780633bcb2e661461007a5780634d622e7a146100b05780637f106eba146100e6578063fcfd6b0a14610102575b600080fd5b610064610120565b60405161007191906117a3565b60405180910390f35b610094600480360381019061008f91906114ae565b6104ba565b6040516100a79796959493929190611718565b60405180910390f35b6100ca60048036038101906100c591906114ae565b610779565b6040516100dd9796959493929190611718565b60405180910390f35b61010060048036038101906100fb91906113c5565b610a38565b005b61010a610ef6565b60405161011791906117a3565b60405180910390f35b6060600260003373ffffffffffffffffffffffffffffffffffffffff1673ffffffffffffffffffffffffffffffffffffffff168152602001908152602001600020805480602002602001604051908101604052809291908181526020016000905b828210156104b157838290600052602060002090600702016040518060e00160405290816000820160009054906101000a900473ffffffffffffffffffffffffffffffffffffffff1673ffffffffffffffffffffffffffffffffffffffff1673ffffffffffffffffffffffffffffffffffffffff1681526020016001820160009054906101000a900473ffffffffffffffffffffffffffffffffffffffff1673ffffffffffffffffffffffffffffffffffffffff1673ffffffffffffffffffffffffffffffffffffffff1681526020016002820180546102609061193f565b80601f016020809104026020016040519081016040528092919081815260200182805461028c9061193f565b80156102d95780601f106102ae576101008083540402835291602001916102d9565b820191906000526020600020905b8154815290600101906020018083116102bc57829003601f168201915b505050505081526020016003820180546102f29061193f565b80601f016020809104026020016040519081016040528092919081815260200182805461031e9061193f565b801561036b5780601f106103405761010080835404028352916020019161036b565b820191906000526020600020905b81548152906001019060200180831161034e57829003601f168201915b505050505081526020016004820154815260200160058201805461038e9061193f565b80601f01602080910402602001604051908101604052809291908181526020018280546103ba9061193f565b80156104075780601f106103dc57610100808354040283529160200191610407565b820191906000526020600020905b8154815290600101906020018083116103ea57829003601f168201915b505050505081526020016006820180546104209061193f565b80601f016020809104026020016040519081016040528092919081815260200182805461044c9061193f565b80156104995780601f1061046e57610100808354040283529160200191610499565b820191906000526020600020905b81548152906001019060200180831161047c57829003601f168201915b50505050508152505081526020019060010190610181565b50505050905090565b600260205281600052604060002081815481106104d657600080fd5b9060005260206000209060070201600091509150508060000160009054906101000a900473ffffffffffffffffffffffffffffffffffffffff16908060010160009054906101000a900473ffffffffffffffffffffffffffffffffffffffff16908060020180546105469061193f565b80601f01602080910402602001604051908101604052809291908181526020018280546105729061193f565b80156105bf5780601f10610594576101008083540402835291602001916105bf565b820191906000526020600020905b8154815290600101906020018083116105a257829003601f168201915b5050505050908060030180546105d49061193f565b80601f01602080910402602001604051908101604052809291908181526020018280546106009061193f565b801561064d5780601f106106225761010080835404028352916020019161064d565b820191906000526020600020905b81548152906001019060200180831161063057829003601f168201915b5050505050908060040154908060050180546106689061193f565b80601f01602080910402602001604051908101604052809291908181526020018280546106949061193f565b80156106e15780601f106106b6576101008083540402835291602001916106e1565b820191906000526020600020905b8154815290600101906020018083116106c457829003601f168201915b5050505050908060060180546106f69061193f565b80601f01602080910402602001604051908101604052809291908181526020018280546107229061193f565b801561076f5780601f106107445761010080835404028352916020019161076f565b820191906000526020600020905b81548152906001019060200180831161075257829003601f168201915b5050505050905087565b6001602052816000526040600020818154811061079557600080fd5b9060005260206000209060070201600091509150508060000160009054906101000a900473ffffffffffffffffffffffffffffffffffffffff16908060010160009054906101000a900473ffffffffffffffffffffffffffffffffffffffff16908060020180546108059061193f565b80601f01602080910402602001604051908101604052809291908181526020018280546108319061193f565b801561087e5780601f106108535761010080835404028352916020019161087e565b820191906000526020600020905b81548152906001019060200180831161086157829003601f168201915b5050505050908060030180546108939061193f565b80601f01602080910402602001604051908101604052809291908181526020018280546108bf9061193f565b801561090c5780601f106108e15761010080835404028352916020019161090c565b820191906000526020600020905b8154815290600101906020018083116108ef57829003601f168201915b5050505050908060040154908060050180546109279061193f565b80601f01602080910402602001604051908101604052809291908181526020018280546109539061193f565b80156109a05780601f10610975576101008083540402835291602001916109a0565b820191906000526020600020905b81548152906001019060200180831161098357829003601f168201915b5050505050908060060180546109b59061193f565b80601f01602080910402602001604051908101604052809291908181526020018280546109e19061193f565b8015610a2e5780601f10610a0357610100808354040283529160200191610a2e565b820191906000526020600020905b815481529060010190602001808311610a1157829003601f168201915b5050505050905087565b60003373ffffffffffffffffffffffffffffffffffffffff163111610a92576040517f08c379a0000000000000000000000000000000000000000000000000000000008152600401610a89906117c5565b60405180910390fd5b8573ffffffffffffffffffffffffffffffffffffffff163373ffffffffffffffffffffffffffffffffffffffff161415610b01576040517f08c379a0000000000000000000000000000000000000000000000000000000008152600401610af8906117e5565b60405180910390fd5b600160008773ffffffffffffffffffffffffffffffffffffffff1673ffffffffffffffffffffffffffffffffffffffff1681526020019081526020016000206040518060e001604052803373ffffffffffffffffffffffffffffffffffffffff1681526020018873ffffffffffffffffffffffffffffffffffffffff16815260200187815260200186815260200185815260200184815260200183815250908060018154018082558091505060019003906000526020600020906007020160009091909190915060008201518160000160006101000a81548173ffffffffffffffffffffffffffffffffffffffff021916908373ffffffffffffffffffffffffffffffffffffffff16021790555060208201518160010160006101000a81548173ffffffffffffffffffffffffffffffffffffffff021916908373ffffffffffffffffffffffffffffffffffffffff1602179055506040820151816002019080519060200190610c72929190611290565b506060820151816003019080519060200190610c8f929190611290565b506080820151816004015560a0820151816005019080519060200190610cb6929190611290565b5060c0820151816006019080519060200190610cd3929190611290565b505050600260003373ffffffffffffffffffffffffffffffffffffffff1673ffffffffffffffffffffffffffffffffffffffff1681526020019081526020016000206040518060e001604052803373ffffffffffffffffffffffffffffffffffffffff1681526020018873ffffffffffffffffffffffffffffffffffffffff16815260200187815260200186815260200185815260200184815260200183815250908060018154018082558091505060019003906000526020600020906007020160009091909190915060008201518160000160006101000a81548173ffffffffffffffffffffffffffffffffffffffff021916908373ffffffffffffffffffffffffffffffffffffffff16021790555060208201518160010160006101000a81548173ffffffffffffffffffffffffffffffffffffffff021916908373ffffffffffffffffffffffffffffffffffffffff1602179055506040820151816002019080519060200190610e47929190611290565b506060820151816003019080519060200190610e64929190611290565b506080820151816004015560a0820151816005019080519060200190610e8b929190611290565b5060c0820151816006019080519060200190610ea8929190611290565b5050507fa6350c14583e2f1226e944596e0059ff862b97ee0ad1582f6fb81b582070719b33878787878787604051610ee69796959493929190611718565b60405180910390a1505050505050565b6060600160003373ffffffffffffffffffffffffffffffffffffffff1673ffffffffffffffffffffffffffffffffffffffff168152602001908152602001600020805480602002602001604051908101604052809291908181526020016000905b8282101561128757838290600052602060002090600702016040518060e00160405290816000820160009054906101000a900473ffffffffffffffffffffffffffffffffffffffff1673ffffffffffffffffffffffffffffffffffffffff1673ffffffffffffffffffffffffffffffffffffffff1681526020016001820160009054906101000a900473ffffffffffffffffffffffffffffffffffffffff1673ffffffffffffffffffffffffffffffffffffffff1673ffffffffffffffffffffffffffffffffffffffff1681526020016002820180546110369061193f565b80601f01602080910402602001604051908101604052809291908181526020018280546110629061193f565b80156110af5780601f10611084576101008083540402835291602001916110af565b820191906000526020600020905b81548152906001019060200180831161109257829003601f168201915b505050505081526020016003820180546110c89061193f565b80601f01602080910402602001604051908101604052809291908181526020018280546110f49061193f565b80156111415780601f1061111657610100808354040283529160200191611141565b820191906000526020600020905b81548152906001019060200180831161112457829003601f168201915b50505050508152602001600482015481526020016005820180546111649061193f565b80601f01602080910402602001604051908101604052809291908181526020018280546111909061193f565b80156111dd5780601f106111b2576101008083540402835291602001916111dd565b820191906000526020600020905b8154815290600101906020018083116111c057829003601f168201915b505050505081526020016006820180546111f69061193f565b80601f01602080910402602001604051908101604052809291908181526020018280546112229061193f565b801561126f5780601f106112445761010080835404028352916020019161126f565b820191906000526020600020905b81548152906001019060200180831161125257829003601f168201915b50505050508152505081526020019060010190610f57565b50505050905090565b82805461129c9061193f565b90600052602060002090601f0160209004810192826112be5760008555611305565b82601f106112d757805160ff1916838001178555611305565b82800160010185558215611305579182015b828111156113045782518255916020019190600101906112e9565b5b5090506113129190611316565b5090565b5b8082111561132f576000816000905550600101611317565b5090565b60006113466113418461182a565b611805565b90508281526020810184848401111561135e57600080fd5b6113698482856118fd565b509392505050565b60008135905061138081611a89565b92915050565b600082601f83011261139757600080fd5b81356113a7848260208601611333565b91505092915050565b6000813590506113bf81611aa0565b92915050565b60008060008060008060c087890312156113de57600080fd5b60006113ec89828a01611371565b965050602087013567ffffffffffffffff81111561140957600080fd5b61141589828a01611386565b955050604087013567ffffffffffffffff81111561143257600080fd5b61143e89828a01611386565b945050606061144f89828a016113b0565b935050608087013567ffffffffffffffff81111561146c57600080fd5b61147889828a01611386565b92505060a087013567ffffffffffffffff81111561149557600080fd5b6114a189828a01611386565b9150509295509295509295565b600080604083850312156114c157600080fd5b60006114cf85828601611371565b92505060206114e0858286016113b0565b9150509250929050565b60006114f68383611649565b905092915050565b611507816118c1565b82525050565b611516816118c1565b82525050565b60006115278261186b565b611531818561188e565b9350836020820285016115438561185b565b8060005b8581101561157f578484038952815161156085826114ea565b945061156b83611881565b925060208a01995050600181019050611547565b50829750879550505050505092915050565b600061159c82611876565b6115a6818561189f565b93506115b681856020860161190c565b6115bf81611a00565b840191505092915050565b60006115d582611876565b6115df81856118b0565b93506115ef81856020860161190c565b6115f881611a00565b840191505092915050565b6000611610601e836118b0565b915061161b82611a11565b602082019050919050565b6000611633602b836118b0565b915061163e82611a3a565b604082019050919050565b600060e08301600083015161166160008601826114fe565b50602083015161167460208601826114fe565b506040830151848203604086015261168c8282611591565b915050606083015184820360608601526116a68282611591565b91505060808301516116bb60808601826116fa565b5060a083015184820360a08601526116d38282611591565b91505060c083015184820360c08601526116ed8282611591565b9150508091505092915050565b611703816118f3565b82525050565b611712816118f3565b82525050565b600060e08201905061172d600083018a61150d565b61173a602083018961150d565b818103604083015261174c81886115ca565b9050818103606083015261176081876115ca565b905061176f6080830186611709565b81810360a083015261178181856115ca565b905081810360c083015261179581846115ca565b905098975050505050505050565b600060208201905081810360008301526117bd818461151c565b905092915050565b600060208201905081810360008301526117de81611603565b9050919050565b600060208201905081810360008301526117fe81611626565b9050919050565b600061180f611820565b905061181b8282611971565b919050565b6000604051905090565b600067ffffffffffffffff821115611845576118446119d1565b5b61184e82611a00565b9050602081019050919050565b6000819050602082019050919050565b600081519050919050565b600081519050919050565b6000602082019050919050565b600082825260208201905092915050565b600082825260208201905092915050565b600082825260208201905092915050565b60006118cc826118d3565b9050919050565b600073ffffffffffffffffffffffffffffffffffffffff82169050919050565b6000819050919050565b82818337600083830152505050565b60005b8381101561192a57808201518184015260208101905061190f565b83811115611939576000848401525b50505050565b6000600282049050600182168061195757607f821691505b6020821081141561196b5761196a6119a2565b5b50919050565b61197a82611a00565b810181811067ffffffffffffffff82111715611999576119986119d1565b5b80604052505050565b7f4e487b7100000000000000000000000000000000000000000000000000000000600052602260045260246000fd5b7f4e487b7100000000000000000000000000000000000000000000000000000000600052604160045260246000fd5b6000601f19601f8301169050919050565b7f596f75206d6179206e6f74206861766520656e6f7567682066756e64732e0000600082015250565b7f53656e64657220616e6420726563696576657220616464726573732063616e6e60008201527f6f742062652073616d652e000000000000000000000000000000000000000000602082015250565b611a92816118c1565b8114611a9d57600080fd5b50565b611aa9816118f3565b8114611ab457600080fd5b5056fea264697066735822122060b7380315c01c36fc926307d371965f5f722bf31bb586ef9030537e19c7c89964736f6c63430008040033",
  "linkReferences": {},
  "deployedLinkReferences": {}
}